{
  "transactions": [
    {
      "hash": "0xfaf4f689939e752289450221138054af1ece42c24e70f976bdf6711561b90f27",
      "transactionType": "CALL",
      "contractName": null,
      "contractAddress": "0x53d67365432d7ca31ddbf1b7dfc2159a68125491",
      "function": "mintNft(string)",
      "arguments": [
        "ipfs://QmUJC8mmic5Po4g6uH7Dsz5UgvfhADD59qHbjRai3FDSGM/lawn.json"
      ],
      "transaction": {
        "from": "0x27806b67b4dfc5c562a7b8e5aca55eb0f51f9db1",
        "to": "0x53d67365432d7ca31ddbf1b7dfc2159a68125491",
        "gas": "0x36044",
        "value": "0x0",
        "input": "0xda86f4a90000000000000000000000000000000000000000000000000000000000000020000000000000000000000000000000000000000000000000000000000000003f697066733a2f2f516d554a43386d6d696335506f34673675483744737a35556776666841444435397148626a52616933464453474d2f6c61776e2e6a736f6e00",
        "nonce": "0x27",
        "chainId": "0xaa36a7"
      },
      "additionalContracts": [],
      "isFixedGasLimit": false
    }
  ],
  "receipts": [
    {
      "status": "0x1",
      "cumulativeGasUsed": "0xe1f5b0",
      "logs": [
        {
          "address": "0x53d67365432d7ca31ddbf1b7dfc2159a68125491",
          "topics": [
            "0xddf252ad1be2c89b69c2b068fc378daa952ba7f163c4a11628f55a4df523b3ef",
            "0x0000000000000000000000000000000000000000000000000000000000000000",
            "0x00000000000000000000000027806b67b4dfc5c562a7b8e5aca55eb0f51f9db1",
            "0x0000000000000000000000000000000000000000000000000000000000000000"
          ],
          "data": "0x",
          "blockHash": "0xddf5ab74d61159ccc9975ecef54bc8003f1ac20169d915632642afa7274e8615",
          "blockNumber": "0x9a743d",
          "blockTimestamp": "0x69766860",
          "transactionHash": "0xfaf4f689939e752289450221138054af1ece42c24e70f976bdf6711561b90f27",
          "transactionIndex": "0x1f",
          "logIndex": "0x46",
          "removed": false
        }
      ],
      "logsBloom": "0x00000000000000000000000000000000000000000000000000000000004000000000000000000000000000000000000000000000000000000000000000000000000000000000000000000008000000000000000000000000000000000000000000000000020000000000000000000800000000000000000000000010000000000000000000000000000000000000000800000000000000000000000000000000000000000000000000000000000000001000000000000000000000000000000000000002000000000000000000000000000000000000000000000000200020000000000000000000000000000000000000000020000000100000000000000000",
      "type": "0x2",
      "transactionHash": "0xfaf4f689939e752289450221138054af1ece42c24e70f976bdf6711561b90f27",
      "transactionIndex": "0x1f",
      "blockHash": "0xddf5ab74d61159ccc9975ecef54bc8003f1ac20169d915632642afa7274e8615",
      "blockNumber": "0x9a743d",
      "gasUsed": "0x271b7",
      "effectiveGasPrice": "0x4024a9ac",
      "from": "0x27806b67b4dfc5c562a7b8e5aca55eb0f51f9db1",
      "to": "0x53d67365432d7ca31ddbf1b7dfc2159a68125491",
      "contractAddress": null
    }
  ],
  "libraries": [],
  "pending": [],
  "returns": {},
  "timestamp": 1769367650055,
  "chain": 11155111,
  "commit": null
}